{
  "contractName": "EscrowSimple",
  "abi": [
    {
      "constant": true,
      "inputs": [],
      "name": "seller",
      "outputs": [
        {
          "name": "",
          "type": "address"
        }
      ],
      "payable": false,
      "stateMutability": "view",
      "type": "function"
    },
    {
      "constant": true,
      "inputs": [],
      "name": "getBalance",
      "outputs": [
        {
          "name": "",
          "type": "uint256"
        }
      ],
      "payable": false,
      "stateMutability": "view",
      "type": "function"
    },
    {
      "constant": false,
      "inputs": [],
      "name": "payoutToSeller",
      "outputs": [],
      "payable": false,
      "stateMutability": "nonpayable",
      "type": "function"
    },
    {
      "constant": false,
      "inputs": [],
      "name": "refundToBuyer",
      "outputs": [],
      "payable": false,
      "stateMutability": "nonpayable",
      "type": "function"
    },
    {
      "constant": false,
      "inputs": [],
      "name": "receiveMoney",
      "outputs": [
        {
          "name": "",
          "type": "address"
        }
      ],
      "payable": true,
      "stateMutability": "payable",
      "type": "function"
    },
    {
      "constant": true,
      "inputs": [
        {
          "name": "_id",
          "type": "bytes32"
        }
      ],
      "name": "buyer",
      "outputs": [
        {
          "name": "",
          "type": "address"
        }
      ],
      "payable": false,
      "stateMutability": "view",
      "type": "function"
    },
    {
      "inputs": [
        {
          "name": "_seller",
          "type": "address"
        },
        {
          "name": "_arbiter",
          "type": "address"
        }
      ],
      "payable": false,
      "stateMutability": "view",
      "type": "function",
      "constant": true,
      "name": "arbiter",
      "outputs": [
        {
          "name": "",
          "type": "address"
        }
      ]
    },
    {
      "inputs": [
        {
          "name": "_seller",
          "type": "address"
        },
        {
          "name": "_arbiter",
          "type": "address"
        }
      ],
      "payable": false,
      "stateMutability": "nonpayable",
      "type": "constructor"
    },
    {
      "anonymous": false,
      "inputs": [
        {
          "indexed": true,
          "name": "_from",
          "type": "address"
        },
        {
          "indexed": true,
          "name": "_id",
          "type": "bytes32"
        },
        {
          "indexed": false,
          "name": "_value",
          "type": "uint256"
        }
      ],
      "name": "Deposit",
      "type": "fallback",
      "payable": true,
      "stateMutability": "payable"
    }
  ],
  "bytecode": "0x6060604052341561000f57600080fd5b6040516040806105f883398101604052808051906020019091908051906020019091905050336000806101000a81548173ffffffffffffffffffffffffffffffffffffffff021916908373ffffffffffffffffffffffffffffffffffffffff16021790555081600160006101000a81548173ffffffffffffffffffffffffffffffffffffffff021916908373ffffffffffffffffffffffffffffffffffffffff16021790555080600260006101000a81548173ffffffffffffffffffffffffffffffffffffffff021916908373ffffffffffffffffffffffffffffffffffffffff16021790555050506104f1806101076000396000f300606060405260043610610083576000357c0100000000000000000000000000000000000000000000000000000000900463ffffffff16806308551a531461008557806312065fe0146100da57806329bb3c89146101035780634bd7d081146101185780636d26ec181461012d5780637150d8ae14610137578063fe25e00a1461018c575b005b341561009057600080fd5b6100986101e1565b604051808273ffffffffffffffffffffffffffffffffffffffff1673ffffffffffffffffffffffffffffffffffffffff16815260200191505060405180910390f35b34156100e557600080fd5b6100ed610207565b6040518082815260200191505060405180910390f35b341561010e57600080fd5b610116610226565b005b341561012357600080fd5b61012b61034f565b005b610135610478565b005b341561014257600080fd5b61014a61047a565b604051808273ffffffffffffffffffffffffffffffffffffffff1673ffffffffffffffffffffffffffffffffffffffff16815260200191505060405180910390f35b341561019757600080fd5b61019f61049f565b604051808273ffffffffffffffffffffffffffffffffffffffff1673ffffffffffffffffffffffffffffffffffffffff16815260200191505060405180910390f35b600160009054906101000a900473ffffffffffffffffffffffffffffffffffffffff1681565b60003073ffffffffffffffffffffffffffffffffffffffff1631905090565b6000809054906101000a900473ffffffffffffffffffffffffffffffffffffffff1673ffffffffffffffffffffffffffffffffffffffff163373ffffffffffffffffffffffffffffffffffffffff1614806102ce5750600260009054906101000a900473ffffffffffffffffffffffffffffffffffffffff1673ffffffffffffffffffffffffffffffffffffffff163373ffffffffffffffffffffffffffffffffffffffff16145b1561034d57600160009054906101000a900473ffffffffffffffffffffffffffffffffffffffff1673ffffffffffffffffffffffffffffffffffffffff166108fc3073ffffffffffffffffffffffffffffffffffffffff16319081150290604051600060405180830381858888f19350505050151561034c57600080fd5b5b565b600160009054906101000a900473ffffffffffffffffffffffffffffffffffffffff1673ffffffffffffffffffffffffffffffffffffffff163373ffffffffffffffffffffffffffffffffffffffff1614806103f85750600260009054906101000a900473ffffffffffffffffffffffffffffffffffffffff1673ffffffffffffffffffffffffffffffffffffffff163373ffffffffffffffffffffffffffffffffffffffff16145b15610476576000809054906101000a900473ffffffffffffffffffffffffffffffffffffffff1673ffffffffffffffffffffffffffffffffffffffff166108fc3073ffffffffffffffffffffffffffffffffffffffff16319081150290604051600060405180830381858888f19350505050151561047557600080fd5b5b565b565b6000809054906101000a900473ffffffffffffffffffffffffffffffffffffffff1681565b600260009054906101000a900473ffffffffffffffffffffffffffffffffffffffff16815600a165627a7a7230582029599c9dac27a7373c2ee8a90069add155583e4798ded2d0642b3fb0354cffe40029",
  "source": "pragma solidity ^0.4.2;\n\n/**\n\n/// @author SergeyPonomarev(JackBekket)\n\nbuyer = initiator\nseller = executor\n\nSimple Escrow service without hard-modifiers and state VALUES\n\n**/\n\n\ncontract EscrowSimple {\n\n  //set variables\n  address public buyer;\n  address public seller;\n  address public arbiter;\n\n  //constructor runs once\n  function EscrowSimple(address _seller, address _arbiter) public {\n    buyer = msg.sender;\n    seller = _seller;\n    arbiter = _arbiter;\n  }\n \n  //make payment to seller\n  function payoutToSeller() public {\n    if(msg.sender == buyer || msg.sender == arbiter) {\n    if(!seller.send(this.balance)) revert();\n    }\n  }\n\n  //refund transaction\n  function refundToBuyer() public {\n    if(msg.sender == seller || msg.sender == arbiter) {\n    if(!buyer.send(this.balance)) revert();\n    }\n  }\n\n  //query for balance\n  function getBalance() public constant returns (uint) {\n    return this.balance;\n  }\n\n  function() public payable { \n      \n  }\n\n  function receiveMoney() public payable { \n    \n  }\n\n}",
  "sourcePath": "/Users/nikolai/Desktop/stuff/Produce/project_hackathons/Hackathon16 Blockchain/escron/contracts/Escrow.sol",
  "compiler": {
    "name": "solc",
    "version": "0.4.18+commit.9cf6e910.Emscripten.clang"
  },
  "schemaVersion": "1.0.1",
  "updatedAt": "2018-01-06T01:54:48.993Z"
}